:020000040800F2
:10000000A0190020CD010008370300082F030008C5
:100010003303000829030008A711000800000000AE
:100020000000000000000000000000002B0F00088E
:100030002D030008000000005B0200083D100008CE
:10004000E7010008E7010008E7010008E7010008F0
:10005000E7010008E7010008E7010008E7010008E0
:10006000E7010008E7010008E7010008E7010008D0
:10007000E7010008E7010008E7010008E7010008C0
:10008000E7010008E7010008E7010008E7010008B0
:10009000E7010008E7010008E7010008E7010008A0
:1000A000E7010008E7010008E7010008E701000890
:1000B000E7010008E7010008E7010008E701000880
:1000C000E7010008E7010008E7010008E701000870
:1000D000E7010008B9100008E7010008E70100087F
:1000E000E7010008E7010008E7010008E701000850
:1000F000E7010008E7010008E7010008E701000840
:10010000E7010008E7010008E7010008E70100082F
:10011000E7010008E7010008E7010008E70100081F
:10012000E7010008E7010008E7010008E70100080F
:1001300000F002F800F03AF80AA090E8000C8244BF
:100140008344AAF10107DA4501D100F02FF8AFF29C
:10015000090EBAE80F0013F0010F18BFFB1A43F0A5
:1001600001031847FC1100001C120000103A24BFC4
:1001700078C878C1FAD8520724BF30C830C144BF0C
:1001800004680C607047000000230024002500264E
:10019000103A28BF78C1FBD8520728BF30C148BFEA
:1001A0000B6070471FB51FBD10B510BD00F08DF876
:1001B0001146FFF7F7FF01F029F800F0ABF803B4A0
:1001C000FFF7F2FF03BC00F0F0FF00000948804792
:1001D00009480047FEE7FEE7FEE7FEE7FEE7FEE729
:1001E000FEE7FEE7FEE7FEE704480549054A064B41
:1001F000704700005910000831010008A0130020CA
:10020000A0190020A0150020A0150020EFF31080F9
:1002100072B6704780F310887047204C204D2560DF
:100220004FF0000484F309881E4C4FF0010525703F
:100230001D4C4FF08055256062B6FEE730B41A4C75
:100240004FF08055256030BC704730B4164C4FF0ED
:100250008055256030BC704700BF72B6EFF309804F
:1002600028B1203880E8F00F10490968086000B50F
:100270000F4880475DF804EB0E480F490A7802707A
:100280000A480E490A680260106890E8F00F2030B2
:1002900080F309884EF0040E62B6704720ED00E04E
:1002A0000000FFFF4600002004ED00E04C000020AD
:1002B0001D0800083B0000203C00002054000020E6
:1002C00070477047704770477047754600F028F8D0
:1002D000AE4605006946534620F00700854618B033
:1002E00020B5FFF781FFBDE820404FF000064FF03A
:1002F00000074FF000084FF0000B21F00701AC465B
:10030000ACE8C009ACE8C009ACE8C009ACE8C00979
:100310008D4670470446AFF300802046FFF74FFF3D
:10032000004870474013002000BFFEE7704700BF41
:10033000FEE700BFFEE7704702490143024A116031
:10034000704700000000FA050CED00E010B500F069
:1003500013F800F06FFB00F097FB00F0B7FB00F024
:100360003FFB00F011FB00F04BFC00F0EFFB00F056
:1003700015FC00F002F810BD704770470648007881
:10038000012808D105480078FF2804D203480078E6
:10039000401C0249087070474600002039000020C8
:1003A00010B500241A480078012830D1FFF72EFF3D
:1003B00004461848007820B116480078401E1549B8
:1003C000087014480078F8B913480078E0B900F0D4
:1003D00079FC12481249097850F821001149086047
:1003E0000F4800781049097888420DD00D48006800
:1003F000806B401C0B49096888630C480068401CEE
:100400000A490860FFF721FF2046FFF703FF10BDF0
:1004100046000020390000203A0000204806002055
:100420003C000020540000203B0000202000002061
:1004300010B50B48007890B900F044FC09480078EA
:100440000949087009480749097850F82100084906
:1004500008600846006807490860FFF7DEFE10BD27
:10046000460000203C0000203B0000204806002001
:10047000540000204C000020704700002DE9FE4F82
:1004800006460F4690461C464FF00009FFF7BEFE99
:1004900081461F48007828B14846FFF7BBFE3C2044
:1004A000BDE8FE8F1B4850F8240060BB01201949AD
:1004B00041F824004846FFF7ADFE00234246394686
:1004C000304600F009F98246002000900190034672
:1004D000024651460290204600F00AFC054635B916
:1004E0000D48007801280CD100F0B2FB09E0FFF7BD
:1004F0008DFE81460020074941F824004846FFF759
:1005000089FE2846CCE74846FFF784FE2820C7E747
:100510003900002048060020460000202DE9F04F59
:1005200085B081468A4693461C46DDE90F78129DC8
:1005300000200390FFF76AFE03902348007830B153
:100540000398FFF767FE3C2005B0BDE8F08F1F4819
:1005500050F8240088BB01201C4941F8240003986E
:10056000FFF758FE2A464146384600F0D1FC2B469C
:100570005A465146484600F0AFF804901198CDE92C
:10058000008002953A4620460E9B049900F0B0FB8D
:10059000064636B90E48007801280CD100F058FB09
:1005A00009E0FFF733FE03900020084941F82400DA
:1005B0000398FFF72FFE3046C6E7FFE70398FFF7E3
:1005C00029FE2820C0E7000039000020480600204E
:1005D00046000020704770472DE9F04106460F465F
:1005E00014464FF000081548007818B1122020700A
:1005F000BDE8F081FFF70AFE8046FF2E03D11048C8
:10060000006890F832600F4850F826502DB94046E7
:10061000FFF700FE43202070EAE7012D05D1404698
:10062000FFF7F8FD43202070E2E7EF644046FFF754
:10063000F1FD0020207000BFDAE700003900002043
:100640004C00002048060020704700002DE9F047CC
:1006500007460D464FF0000A002028606860FFF74B
:10066000D5FD8246FF2F03D11948006890F83270FB
:10067000184850F827402CB95046FFF7CBFD4320CF
:10068000BDE8F087012C04D15046FFF7C3FD43209D
:10069000F6E7207C00F0010020B95046FFF7BAFDD4
:1006A0004520EDE70026D4F80C90D4F80880504699
:1006B000FFF7B0FD00E0761C58F8041B0029FAD0C3
:1006C000B0002860A9EB0600800068600020D7E732
:1006D0004C0000204806002070B5044610464FF03C
:1006E00080750560051F28462C606FF00106051F08
:1006F00028462E604FF01236051F28462E604FF018
:100700000336051F28462E604FF00236051F284687
:100710002E607610051F28462E60051F284629608A
:100720004FF01136051F28462E604FF01036051F7A
:1007300028462E604FF00936051F28462E604FF0E0
:100740000836051F28462E604FF00736051F28463D
:100750002E604FF00636051F28462E604FF00536F6
:10076000051F28462E604FF00436051F28462E60D0
:1007700070BD00002DE9F04105464FF00008FFF77D
:1007800045FD8046FF2D05D12048006890F8325085
:10079000012608E01D48006890F83200A84201D107
:1007A000012600E000261A4850F825402CB94046A2
:1007B000FFF730FD4820BDE8F081012C04D1404610
:1007C000FFF728FD4320F6E794F834701148C05D28
:1007D00094F8351088430F49C8550846C05D30B9B4
:1007E00094F836100C48007888430B49087094F848
:1007F000300040F0080084F830004046FFF70AFD62
:10080000012E01D100F024FA0020D4E74C00002092
:10081000480600203E0000203D00002070470000F8
:1008200070B5054600261748007800B170BD16481F
:10083000007800B1FAE71DB3FFF7E8FC064613485D
:10084000006890F834401248005D1049096891F83A
:10085000351088430E4908550846005D40B90B48DD
:10086000006890F836100B480078884309490870F2
:1008700006480068C5623046FFF7CCFC00F0E8F996
:1008800000BFD3E7390000203A0000204C000020D0
:100890003E0000203D00002070B5002600F072F8F8
:1008A000FFF7B4FC064631480068401C2F49086039
:1008B0003046FFF7AFFC2E480078012853D12D4871
:1008C000007820B1012804D0022809D103E00125D5
:1008D0000BE0002509E0012501202649087004E00D
:1008E000012500202349087000BF00BF05B970BD75
:1008F0002148046833E0FFF789FC0646E06A50B3FC
:10090000E06A401EE062E06A28BB94F8300000F024
:10091000370040B114F8300F00F0C80020700120FB
:100920006070303C02E0002084F8310094F8300020
:1009300000F0080078B93434A078104909780843E9
:100940000E49087020780E49085C6178084314F855
:1009500034190B4A505464693046FFF75BFC94F835
:1009600032003F28C7D100BFC1E70000640000206B
:10097000460000205C000020580000203D000020C0
:100980003E000020704700002DE9F0415021114841
:1009900000F02CF900250DE0681C86B20D4800EB34
:1009A000051400EB06170020207067600AA0E060C5
:1009B000681C85B2042DEFD3064800EB0514002017
:1009C0002070606004A0E060024804490860BDE84F
:1009D000F0810000F80100203F0000002800002006
:1009E00070B5C821114800F001F900230FE0581C30
:1009F00085B203EB83000D4901EB800405EB850014
:100A000001EB8006002020706660581C83B2092B21
:100A1000EDD303EB8300054901EB80040020207037
:100A2000606008460249086070BD00003001002087
:100A30002400002000200A4908600A4908700A4979
:100A400008700A4908700A4908700A4908600A498A
:100A500008600A4908600A4908600A490870704736
:100A600064000020390000203A00002047000020E8
:100A70004600002020000020480000203400002014
:100A8000300000203800002000210A4A11700020A8
:100A900004E00021084A1154411CC8B20828F8D3C8
:100AA0000021064A1170064A1170064A1160064A72
:100AB000116070473D0000203E0000203B000020F8
:100AC0003C000020540000204C00002070B54FF482
:100AD0002861194800F08AF84FF48071174800F037
:100AE00085F8002413E0601CC5B2C4EBC40000EB21
:100AF0004000114901EB8003C5EBC50000EB40004D
:100B000001EB80065E610EA0D864601CC4B21F2C8D
:100B1000E9D3C4EBC40000EB4000074901EB8003BC
:100B20000020586106A0D8640020064908600248E9
:100B30000549086070BD00004807002048060020F5
:100B40003F000000580000205000002000B587B092
:100B50000320002180220A4BCDE90132CDE90310A8
:100B60004FF6FF703F23074A00900748FFF7D6FC77
:100B700006AA06A13F20FFF72FFD07B000BD000029
:100B80004804002044060020250E000875432F4F1E
:100B9000532D49492049646C6500000000B587B0B9
:100BA0000320002180220A4BCDE90132CDE9031058
:100BB0004FF6FE703E23074A00900748FFF7AEFC51
:100BC00006AA06A13E20FFF707FD07B000BD000002
:100BD00048020020440400204D0E000875432F4FAA
:100BE000532D4949205374617400000004E0002231
:100BF00000F8012B4A1E91B20029F8D1704700007D
:100C00002DE9F04178211048FFF7F0FF00240DE0B6
:100C1000601C86B204EB44000B4901EBC00506EBF7
:100C2000460001EBC0072F60601C84B2042CEFD398
:100C300004EB4400044901EBC0050020286008468D
:100C400002490860BDE8F081C81100206000002062
:100C500010B50024FFF7DAFA044613480078F8B913
:100C600012480078E0B900F02DF8114811490978D0
:100C700050F82100104908600E4800780F490978A3
:100C800088420DD00C480068806B401C0A490968F6
:100C900088630B480068401C09490860FFF7CEFADA
:100CA0002046FFF7B7FA10BD390000203A000020B7
:100CB000480600203C000020540000203B0000209B
:100CC000200000200649074A1278885C0649095C22
:100CD000034A515C01EBC001044A117070470000E7
:100CE000601200083D0000203E0000203C00002073
:100CF0002DE9F84F05460F4690469946DDE90AABC7
:100D000000200090FFF782FA00903F480468002C12
:100D100074D0183454F8040C3B4908600098FFF76D
:100D200079FA44F8187CA576002020766076606118
:100D300044F814BC44F80CAC44F8108C0C9824F81B
:100D4000080C24F8069C0020E077E810207705F0D6
:100D50000700E076217F01208840A077E17E012016
:100D60008840607700206060E060A0602062A06240
:100D70006062E062206325A06063183C002606E004
:100D8000002104F1500040F82610701CC6B2002E5D
:100D9000F6D02046FFF770FB2046FFF71BFCFFF75D
:100DA00035FA00901A4840F825401A4800686061FA
:100DB0000020A0611748006810B1164800688461DF
:100DC000144804603434A078134909780843124960
:100DD000087020781149085C6178084314F83419C8
:100DE0000E4A50540E480078401C0D490870009877
:100DF000FFF710FA0020BDE8F88FFFE70098FFF733
:100E000009FA4220F7E70000500000203F000000F0
:100E100048060020580000203D0000203E00002031
:100E200047000020002400BF00BFFFF7EFF9044691
:100E300005480068401C044908602046FFF7EAF9AD
:100E4000FFF7C9FBF1E7000048000020002400BFC5
:100E500002E02820FFF7E4FC194800780028F8D0C9
:100E6000184800686421B0FBF1F016490860084694
:100E7000006828B9002014490870FF20FFF77AFCA9
:100E800000BFFFF7C3F90446104800681049086026
:100E900000200E4908602046FFF7BCF90C480068A6
:100EA00008490968B0FBF1F0C0F164000649087018
:100EB000FFF7CAFB00F00EF81420FFF7B1FCE0E7E3
:100EC00038000020300000202C00002048000020C6
:100ED000340000207CB5002514E069462846FFF761
:100EE000B5FB064666B9094850F8254044B1012CC7
:100EF00006D0D4E9020100EB810060640198A0648F
:100F0000681CC5B23F2DE8D97CBD00004806002012
:100F100002F0010343B102F002032BB102E0491ECB
:100F2000002308C00029FAD17047704710B500F0BF
:100F300001F810BD0CB50020019000903348006806
:100F400040F480303149086000BF3048006800F448
:100F5000003000900198401C0190009818B9019849
:100F6000B0F5A06FF1D12948006800F4003010B14D
:100F70000120009001E0002000900098012843D15A
:100F80002348006840F010002149086008460068C6
:100F900020F0030008600846006840F00200086086
:100FA0001A48406819494860084640684860084641
:100FB000406840F4806048600846406820F47C1037
:100FC00048600846406840F4E810486008460068F9
:100FD00040F08070086000BF0C48006800F00070AE
:100FE0000028F9D00948406820F00300074948600C
:100FF0000846406840F00200486000BF034840686F
:1010000000F00C000828F9D10CBD000000100240CF
:1010100000200240042808D14FF0E021096941F086
:1010200004014FF0E022116107E04FF0E02109696F
:1010300021F004014FF0E0221161704710B505481E
:101040000078012805D1FFF799F9FFF725FCFFF794
:10105000A7F910BD4600002010B51348006840F005
:1010600001001149086008464068104908400E49CF
:101070004860084600680E4908400B490860084669
:10108000006820F4802008600846406820F4FE00D4
:1010900048604FF41F008860FFF748FF4FF0006082
:1010A0000449086010BD0000001002400000FFF875
:1010B000FFFFF6FE08ED00E010B5FFF75FF940F224
:1010C00025511E4800F040F810B31C4800F066F8A7
:1010D000C4B21B48008800F40040C8B91848008812
:1010E00000F4804060B10A2C03D00020144908802D
:1010F00020E01348008840F400401149088019E0BE
:101100000D2C06D10E48008840F480400C49088020
:1011100010E00B480088C0F30D000A490C54084841
:101120000088401C0649088008460088C72801DD61
:1011300000200880FFF734F910BD0000003801409E
:101140001C0000206800002070B502460024002327
:101150000025002040F66A16B14200D100BFC1F35D
:10116000421501F01F03012606FA03F3012D02D1F7
:101170009689334006E0022D02D1168A334001E001
:10118000968A33400C12012606FA04F4168834407D
:1011900013B10CB1012000E0002070BD0146888829
:1011A000C0F30800704700BFFEE7014600BF70476C
:1011B00010B56FF00400FFF72DFF104800681049CC
:1011C000B0FBF1F00F4908700C4800680C49B0FB07
:1011D000F1F441F28830444305200B4908804FF078
:1011E000E020006940F002004FF0E021086108466D
:1011F0004461006940F00100086110BD000000205A
:1012000000127A00140000201600002010B5FFF72D
:10121000CFFF4FF4A060FFF78FF8FFF797F800F0CB
:1012200013F8FFF705F9002010BD70B5044600253E
:1012300000BFFEF7EBFF05460A20FFF79BFA2846A2
:10124000FEF7E8FF70BD000010B50A23024A002136
:101250000248FFF713F910BD3C1300202B120008C1
:101260000000010002000100030001000200010073
:10127000040001000200010003000100020001005F
:10128000050001000200010003000100020001004E
:10129000040001000200010003000100020001003F
:1012A000060001000200010003000100020001002D
:1012B000040001000200010003000100020001001F
:1012C000050001000200010003000100020001000E
:1012D00004000100020001000300010002000100FF
:1012E00007000100020001000300010002000100EC
:1012F00004000100020001000300010002000100DF
:1013000005000100020001000300010002000100CD
:1013100004000100020001000300010002000100BE
:1013200006000100020001000300010002000100AC
:10133000040001000200010003000100020001009E
:10134000050001000200010003000100020001008D
:10135000040001000200010003000100020001007E
:101360008013000800000020680000006C010008E5
:10137000E813000868000020381900008801000800
:1013800000A24A0400000000000000000102030463
:10139000060708090000000000000000000000002F
:1013A000000000000000000000000000000000003D
:1013B000000000000000000000000000000000002D
:1013C000000000000000000000000000000000001D
:1013D000000000000000000000000000000000000D
:0813E000000000000000000005
:0400000508000131BD
:00000001FF
